{
  "contractName": "ArtistRole",
  "abi": [
    {
      "inputs": [],
      "payable": false,
      "stateMutability": "nonpayable",
      "type": "constructor"
    },
    {
      "anonymous": false,
      "inputs": [
        {
          "indexed": true,
          "name": "account",
          "type": "address"
        }
      ],
      "name": "ArtistAdded",
      "type": "event"
    },
    {
      "anonymous": false,
      "inputs": [
        {
          "indexed": true,
          "name": "account",
          "type": "address"
        }
      ],
      "name": "ArtistRemoved",
      "type": "event"
    },
    {
      "constant": true,
      "inputs": [
        {
          "name": "account",
          "type": "address"
        }
      ],
      "name": "isArtist",
      "outputs": [
        {
          "name": "",
          "type": "bool"
        }
      ],
      "payable": false,
      "stateMutability": "view",
      "type": "function"
    },
    {
      "constant": false,
      "inputs": [
        {
          "name": "account",
          "type": "address"
        }
      ],
      "name": "addArtist",
      "outputs": [],
      "payable": false,
      "stateMutability": "nonpayable",
      "type": "function"
    },
    {
      "constant": false,
      "inputs": [],
      "name": "removeArtist",
      "outputs": [],
      "payable": false,
      "stateMutability": "nonpayable",
      "type": "function"
    }
  ],
  "bytecode": "0x608060405234801561001057600080fd5b506100293361002e640100000000026401000000009004565b6101e8565b61004f816000610095640100000000026102bd179091906401000000009004565b8073ffffffffffffffffffffffffffffffffffffffff167fcbfc96fa35f269722f7abab67c3e11fbfd63618e2e593bdf481f2818e8e8304260405160405180910390a250565b600073ffffffffffffffffffffffffffffffffffffffff168173ffffffffffffffffffffffffffffffffffffffff16141515156100d157600080fd5b6100ea8282610154640100000000026401000000009004565b1515156100f657600080fd5b60018260000160008373ffffffffffffffffffffffffffffffffffffffff1673ffffffffffffffffffffffffffffffffffffffff16815260200190815260200160002060006101000a81548160ff0219169083151502179055505050565b60008073ffffffffffffffffffffffffffffffffffffffff168273ffffffffffffffffffffffffffffffffffffffff161415151561019157600080fd5b8260000160008373ffffffffffffffffffffffffffffffffffffffff1673ffffffffffffffffffffffffffffffffffffffff16815260200190815260200160002060009054906101000a900460ff16905092915050565b610448806101f76000396000f3fe608060405260043610610057576000357c0100000000000000000000000000000000000000000000000000000000900463ffffffff1680634d287f2b1461005c5780636b2f65b0146100ad578063bedb054514610116575b600080fd5b34801561006857600080fd5b506100ab6004803603602081101561007f57600080fd5b81019080803573ffffffffffffffffffffffffffffffffffffffff16906020019092919050505061012d565b005b3480156100b957600080fd5b506100fc600480360360208110156100d057600080fd5b81019080803573ffffffffffffffffffffffffffffffffffffffff16906020019092919050505061014d565b604051808215151515815260200191505060405180910390f35b34801561012257600080fd5b5061012b61016a565b005b6101363361014d565b151561014157600080fd5b61014a81610175565b50565b60006101638260006101cf90919063ffffffff16565b9050919050565b61017333610263565b565b6101898160006102bd90919063ffffffff16565b8073ffffffffffffffffffffffffffffffffffffffff167fcbfc96fa35f269722f7abab67c3e11fbfd63618e2e593bdf481f2818e8e8304260405160405180910390a250565b60008073ffffffffffffffffffffffffffffffffffffffff168273ffffffffffffffffffffffffffffffffffffffff161415151561020c57600080fd5b8260000160008373ffffffffffffffffffffffffffffffffffffffff1673ffffffffffffffffffffffffffffffffffffffff16815260200190815260200160002060009054906101000a900460ff16905092915050565b61027781600061036d90919063ffffffff16565b8073ffffffffffffffffffffffffffffffffffffffff167f9d7bad3f21c51eaf001a18afc7f3666e2f9413dafcb58ea9413eeea76b6a2cd360405160405180910390a250565b600073ffffffffffffffffffffffffffffffffffffffff168173ffffffffffffffffffffffffffffffffffffffff16141515156102f957600080fd5b61030382826101cf565b15151561030f57600080fd5b60018260000160008373ffffffffffffffffffffffffffffffffffffffff1673ffffffffffffffffffffffffffffffffffffffff16815260200190815260200160002060006101000a81548160ff0219169083151502179055505050565b600073ffffffffffffffffffffffffffffffffffffffff168173ffffffffffffffffffffffffffffffffffffffff16141515156103a957600080fd5b6103b382826101cf565b15156103be57600080fd5b60008260000160008373ffffffffffffffffffffffffffffffffffffffff1673ffffffffffffffffffffffffffffffffffffffff16815260200190815260200160002060006101000a81548160ff021916908315150217905550505056fea165627a7a72305820b0a134a335d5fd8e9c2799116a58ca34c174af43d6003d1f9d33d8c3e7cb6ec00029",
  "source": "pragma solidity ^0.5.0;\n\n// Import the library 'Roles'\nimport \"./Roles.sol\";\n\n// Define a contract 'ArtistRole' to manage this role - add, remove, check\ncontract ArtistRole {\n    using Roles for Roles.Role;\n\n    // Define 2 events, one for Adding, and other for Removing\n    event ArtistAdded(address indexed account);\n    event ArtistRemoved(address indexed account);\n\n    // Define a struct 'artists' by inheriting from 'Roles' library, struct Role\n    Roles.Role private artists;\n\n    // In the constructor make the address that deploys this contract the 1st artist\n    constructor() public {\n        _addArtist(msg.sender);\n    }\n\n    // Define a modifier that checks to see if msg.sender has the appropriate role\n    modifier onlyArtist() {\n        require(isArtist(msg.sender));\n        _;\n    }\n\n    // Define a function 'isArtist' to check this role\n    function isArtist(address account) public view returns (bool) {\n        return artists.has(account);\n    }\n\n    // Define a function 'addArtist' that adds this role\n    function addArtist(address account) public onlyArtist {\n        _addArtist(account);\n    }\n\n    // Define a function 'removeArtist' to remove this role\n    function removeArtist() public {\n        _removeArtist(msg.sender);\n    }\n\n    // Define an internal function '_addArtist' to add this role, called by 'addFarmer'\n    function _addArtist(address account) internal {\n        artists.add(account);\n        emit ArtistAdded(account);\n    }\n\n    // Define an internal function '_removeArtist' to remove this role, called by 'removeArtist'\n    function _removeArtist(address account) internal {\n        artists.remove(account);\n        emit ArtistRemoved(account);\n    }\n}",
  "sourcePath": "/Users/lauraweindorf/Udacity/art-shop/dapp/contracts/artworkaccesscontrol/ArtistRole.sol",
  "compiler": {
    "name": "solc",
    "version": "0.5.0+commit.1d4f565a.Emscripten.clang"
  },
  "schemaVersion": "3.0.2",
  "updatedAt": "2019-03-04T21:55:05.382Z",
  "devdoc": {
    "methods": {}
  },
  "userdoc": {
    "methods": {}
  }
}