{
  "contractName": "ArtSupplyChain",
  "abi": [
    {
      "constant": false,
      "inputs": [
        {
          "name": "account",
          "type": "address"
        }
      ],
      "name": "addShipper",
      "outputs": [],
      "payable": false,
      "stateMutability": "nonpayable",
      "type": "function",
      "signature": "0x155a7646"
    },
    {
      "constant": false,
      "inputs": [
        {
          "name": "account",
          "type": "address"
        }
      ],
      "name": "addAdopter",
      "outputs": [],
      "payable": false,
      "stateMutability": "nonpayable",
      "type": "function",
      "signature": "0x2a2e391a"
    },
    {
      "constant": false,
      "inputs": [],
      "name": "kill",
      "outputs": [],
      "payable": false,
      "stateMutability": "nonpayable",
      "type": "function",
      "signature": "0x41c0e1b5"
    },
    {
      "constant": false,
      "inputs": [
        {
          "name": "account",
          "type": "address"
        }
      ],
      "name": "addArtist",
      "outputs": [],
      "payable": false,
      "stateMutability": "nonpayable",
      "type": "function",
      "signature": "0x4d287f2b"
    },
    {
      "constant": true,
      "inputs": [
        {
          "name": "account",
          "type": "address"
        }
      ],
      "name": "isArtist",
      "outputs": [
        {
          "name": "",
          "type": "bool"
        }
      ],
      "payable": false,
      "stateMutability": "view",
      "type": "function",
      "signature": "0x6b2f65b0"
    },
    {
      "constant": false,
      "inputs": [],
      "name": "renounceOwnership",
      "outputs": [],
      "payable": false,
      "stateMutability": "nonpayable",
      "type": "function",
      "signature": "0x715018a6"
    },
    {
      "constant": true,
      "inputs": [
        {
          "name": "account",
          "type": "address"
        }
      ],
      "name": "isAdopter",
      "outputs": [
        {
          "name": "",
          "type": "bool"
        }
      ],
      "payable": false,
      "stateMutability": "view",
      "type": "function",
      "signature": "0x87c54ad8"
    },
    {
      "constant": true,
      "inputs": [],
      "name": "owner",
      "outputs": [
        {
          "name": "",
          "type": "address"
        }
      ],
      "payable": false,
      "stateMutability": "view",
      "type": "function",
      "signature": "0x8da5cb5b"
    },
    {
      "constant": true,
      "inputs": [],
      "name": "isOwner",
      "outputs": [
        {
          "name": "",
          "type": "bool"
        }
      ],
      "payable": false,
      "stateMutability": "view",
      "type": "function",
      "signature": "0x8f32d59b"
    },
    {
      "constant": false,
      "inputs": [],
      "name": "removeShipper",
      "outputs": [],
      "payable": false,
      "stateMutability": "nonpayable",
      "type": "function",
      "signature": "0xa1d20472"
    },
    {
      "constant": false,
      "inputs": [],
      "name": "removeArtist",
      "outputs": [],
      "payable": false,
      "stateMutability": "nonpayable",
      "type": "function",
      "signature": "0xbedb0545"
    },
    {
      "constant": true,
      "inputs": [
        {
          "name": "account",
          "type": "address"
        }
      ],
      "name": "isShipper",
      "outputs": [
        {
          "name": "",
          "type": "bool"
        }
      ],
      "payable": false,
      "stateMutability": "view",
      "type": "function",
      "signature": "0xd60c1d55"
    },
    {
      "constant": false,
      "inputs": [
        {
          "name": "newOwner",
          "type": "address"
        }
      ],
      "name": "transferOwnership",
      "outputs": [],
      "payable": false,
      "stateMutability": "nonpayable",
      "type": "function",
      "signature": "0xf2fde38b"
    },
    {
      "constant": false,
      "inputs": [],
      "name": "removeAdopter",
      "outputs": [],
      "payable": false,
      "stateMutability": "nonpayable",
      "type": "function",
      "signature": "0xfacb7530"
    },
    {
      "inputs": [],
      "payable": true,
      "stateMutability": "payable",
      "type": "constructor",
      "signature": "constructor"
    },
    {
      "anonymous": false,
      "inputs": [
        {
          "indexed": false,
          "name": "artworkID",
          "type": "uint256"
        }
      ],
      "name": "Created",
      "type": "event",
      "signature": "0x06acbfb32bcf8383f3b0a768b70ac9ec234ea0f2d3b9c77fa6a2de69b919aad1"
    },
    {
      "anonymous": false,
      "inputs": [
        {
          "indexed": false,
          "name": "artworkID",
          "type": "uint256"
        }
      ],
      "name": "Framed",
      "type": "event",
      "signature": "0x97f7a0783f172f1b747098280ac311feca87fe2f173068f66c02ff24f8ca3f40"
    },
    {
      "anonymous": false,
      "inputs": [
        {
          "indexed": false,
          "name": "artworkID",
          "type": "uint256"
        }
      ],
      "name": "Adoptable",
      "type": "event",
      "signature": "0x4d6ab9e4613f1d574cb846fd1b7bf27837dd08bd1703ab68d4189920aff6fc80"
    },
    {
      "anonymous": false,
      "inputs": [
        {
          "indexed": false,
          "name": "artworkID",
          "type": "uint256"
        }
      ],
      "name": "Adopted",
      "type": "event",
      "signature": "0x7e79c268384d04176e7756f1c88bdafaf9ff08cd00c7bbb6a27b894b1276e333"
    },
    {
      "anonymous": false,
      "inputs": [
        {
          "indexed": false,
          "name": "artworkID",
          "type": "uint256"
        }
      ],
      "name": "Packed",
      "type": "event",
      "signature": "0x9b3b66e2380b690bae22c73ef1428fb0c91e72fe14a4b6defa13035214187aff"
    },
    {
      "anonymous": false,
      "inputs": [
        {
          "indexed": false,
          "name": "artworkID",
          "type": "uint256"
        }
      ],
      "name": "PickedUp",
      "type": "event",
      "signature": "0x083ec4064b35087af011df34f3d207f4f7f619945bf47aac7151dc1bb26cbcec"
    },
    {
      "anonymous": false,
      "inputs": [
        {
          "indexed": false,
          "name": "artworkID",
          "type": "uint256"
        }
      ],
      "name": "Shipped",
      "type": "event",
      "signature": "0xf00b9a5725b80c54016f42114f6ed7792d22eecb116011c4afac29c57bef6c95"
    },
    {
      "anonymous": false,
      "inputs": [
        {
          "indexed": false,
          "name": "artworkID",
          "type": "uint256"
        }
      ],
      "name": "Delivered",
      "type": "event",
      "signature": "0xfcc296b8bdd64e3f1d1faadef50cb2d6550f645316330fe57cb1dd7e0612ead0"
    },
    {
      "anonymous": false,
      "inputs": [
        {
          "indexed": true,
          "name": "oldOwner",
          "type": "address"
        },
        {
          "indexed": true,
          "name": "newOwner",
          "type": "address"
        }
      ],
      "name": "TransferOwnership",
      "type": "event",
      "signature": "0x5c486528ec3e3f0ea91181cff8116f02bfa350e03b8b6f12e00765adbb5af85c"
    },
    {
      "anonymous": false,
      "inputs": [
        {
          "indexed": true,
          "name": "account",
          "type": "address"
        }
      ],
      "name": "ArtAdopterAdded",
      "type": "event",
      "signature": "0x3c8daa04ac74995dc3ea3d63c21f7f0b16b0fd6f123b305163af019adeadef4e"
    },
    {
      "anonymous": false,
      "inputs": [
        {
          "indexed": true,
          "name": "account",
          "type": "address"
        }
      ],
      "name": "ArtAdopterRemoved",
      "type": "event",
      "signature": "0x146551d3c460f46baf7322958cdc5e81ef555361698a32fe4af7a87522c318d6"
    },
    {
      "anonymous": false,
      "inputs": [
        {
          "indexed": true,
          "name": "account",
          "type": "address"
        }
      ],
      "name": "ShipperAdded",
      "type": "event",
      "signature": "0xa6b0d643c10c5fda6645b77a5fb2e02bc2cbd3597d2a30910ca9f42db8b948ca"
    },
    {
      "anonymous": false,
      "inputs": [
        {
          "indexed": true,
          "name": "account",
          "type": "address"
        }
      ],
      "name": "ShipperRemoved",
      "type": "event",
      "signature": "0x4098c33ee7259bdc6331fa574feb5904acfe84b01ace83ede4bc77e2d3ad6738"
    },
    {
      "anonymous": false,
      "inputs": [
        {
          "indexed": true,
          "name": "account",
          "type": "address"
        }
      ],
      "name": "ArtistAdded",
      "type": "event",
      "signature": "0xcbfc96fa35f269722f7abab67c3e11fbfd63618e2e593bdf481f2818e8e83042"
    },
    {
      "anonymous": false,
      "inputs": [
        {
          "indexed": true,
          "name": "account",
          "type": "address"
        }
      ],
      "name": "ArtistRemoved",
      "type": "event",
      "signature": "0x9d7bad3f21c51eaf001a18afc7f3666e2f9413dafcb58ea9413eeea76b6a2cd3"
    },
    {
      "constant": false,
      "inputs": [
        {
          "name": "_artworkTitle",
          "type": "string"
        },
        {
          "name": "_artworkYear",
          "type": "uint256"
        },
        {
          "name": "_artworkMedium",
          "type": "string"
        },
        {
          "name": "_artworkStyle",
          "type": "string"
        },
        {
          "name": "_originArtistID",
          "type": "address"
        },
        {
          "name": "_originArtistName",
          "type": "string"
        },
        {
          "name": "_originArtistInfo",
          "type": "string"
        },
        {
          "name": "_originArtistLocation",
          "type": "string"
        },
        {
          "name": "_artistNotes",
          "type": "string"
        }
      ],
      "name": "createArtwork",
      "outputs": [
        {
          "name": "_artworkID",
          "type": "uint256"
        }
      ],
      "payable": false,
      "stateMutability": "nonpayable",
      "type": "function",
      "signature": "0xd04e460d"
    },
    {
      "constant": false,
      "inputs": [
        {
          "name": "_artworkID",
          "type": "uint256"
        }
      ],
      "name": "frameArtwork",
      "outputs": [],
      "payable": false,
      "stateMutability": "nonpayable",
      "type": "function",
      "signature": "0x63abe6d5"
    },
    {
      "constant": false,
      "inputs": [
        {
          "name": "_artworkID",
          "type": "uint256"
        },
        {
          "name": "_price",
          "type": "uint256"
        }
      ],
      "name": "adoptableArtwork",
      "outputs": [],
      "payable": false,
      "stateMutability": "nonpayable",
      "type": "function",
      "signature": "0x0f2503aa"
    },
    {
      "constant": false,
      "inputs": [
        {
          "name": "_artworkID",
          "type": "uint256"
        },
        {
          "name": "_adopterID",
          "type": "address"
        }
      ],
      "name": "adoptArtwork",
      "outputs": [],
      "payable": true,
      "stateMutability": "payable",
      "type": "function",
      "signature": "0x1a781274"
    },
    {
      "constant": false,
      "inputs": [
        {
          "name": "_artworkID",
          "type": "uint256"
        }
      ],
      "name": "packArtwork",
      "outputs": [],
      "payable": false,
      "stateMutability": "nonpayable",
      "type": "function",
      "signature": "0xe7968923"
    },
    {
      "constant": false,
      "inputs": [
        {
          "name": "_artworkID",
          "type": "uint256"
        }
      ],
      "name": "pickUpArtwork",
      "outputs": [],
      "payable": false,
      "stateMutability": "nonpayable",
      "type": "function",
      "signature": "0x261ca328"
    },
    {
      "constant": false,
      "inputs": [
        {
          "name": "_artworkID",
          "type": "uint256"
        }
      ],
      "name": "shipArtwork",
      "outputs": [],
      "payable": false,
      "stateMutability": "nonpayable",
      "type": "function",
      "signature": "0x9cd584b5"
    },
    {
      "constant": false,
      "inputs": [
        {
          "name": "_artworkID",
          "type": "uint256"
        }
      ],
      "name": "deliverArtwork",
      "outputs": [],
      "payable": false,
      "stateMutability": "nonpayable",
      "type": "function",
      "signature": "0xbc943306"
    },
    {
      "constant": true,
      "inputs": [
        {
          "name": "_artworkID",
          "type": "uint256"
        }
      ],
      "name": "fetchArtworkOwner",
      "outputs": [
        {
          "name": "artworkOwnerID",
          "type": "address"
        }
      ],
      "payable": false,
      "stateMutability": "view",
      "type": "function",
      "signature": "0x61937f38"
    },
    {
      "constant": true,
      "inputs": [
        {
          "name": "_artworkID",
          "type": "uint256"
        }
      ],
      "name": "fetchArtworkState",
      "outputs": [
        {
          "name": "artworkState",
          "type": "uint8"
        }
      ],
      "payable": false,
      "stateMutability": "view",
      "type": "function",
      "signature": "0x6fecc3b3"
    },
    {
      "constant": true,
      "inputs": [
        {
          "name": "_artworkID",
          "type": "uint256"
        }
      ],
      "name": "fetchArtistDetails",
      "outputs": [
        {
          "name": "originArtistID",
          "type": "address"
        },
        {
          "name": "originArtistName",
          "type": "string"
        },
        {
          "name": "originArtistInfo",
          "type": "string"
        },
        {
          "name": "originArtistLocation",
          "type": "string"
        }
      ],
      "payable": false,
      "stateMutability": "view",
      "type": "function",
      "signature": "0x6817b3fb"
    },
    {
      "constant": true,
      "inputs": [
        {
          "name": "_artworkID",
          "type": "uint256"
        }
      ],
      "name": "fetchArtworkDetails",
      "outputs": [
        {
          "name": "artworkID",
          "type": "uint256"
        },
        {
          "name": "artworkOwnerID",
          "type": "address"
        },
        {
          "name": "artworkTitle",
          "type": "string"
        },
        {
          "name": "artworkYear",
          "type": "uint256"
        },
        {
          "name": "artworkStyle",
          "type": "string"
        },
        {
          "name": "artworkPrice",
          "type": "uint256"
        },
        {
          "name": "artistNotes",
          "type": "string"
        },
        {
          "name": "artworkState",
          "type": "uint8"
        },
        {
          "name": "artAdopterID",
          "type": "address"
        },
        {
          "name": "shipperID",
          "type": "address"
        }
      ],
      "payable": false,
      "stateMutability": "view",
      "type": "function",
      "signature": "0x690db8e3"
    }
  ],
  "bytecode": "0x60806040526200001e336200011e640100000000026401000000009004565b620000383362000188640100000000026401000000009004565b6200005233620001f2640100000000026401000000009004565b33600360006101000a81548173ffffffffffffffffffffffffffffffffffffffff021916908373ffffffffffffffffffffffffffffffffffffffff160217905550600360009054906101000a900473ffffffffffffffffffffffffffffffffffffffff1673ffffffffffffffffffffffffffffffffffffffff16600073ffffffffffffffffffffffffffffffffffffffff167f5c486528ec3e3f0ea91181cff8116f02bfa350e03b8b6f12e00765adbb5af85c60405160405180910390a36001600481905550620003b4565b620001428160006200025c6401000000000262002c81179091906401000000009004565b8073ffffffffffffffffffffffffffffffffffffffff167fcbfc96fa35f269722f7abab67c3e11fbfd63618e2e593bdf481f2818e8e8304260405160405180910390a250565b620001ac8160016200025c6401000000000262002c81179091906401000000009004565b8073ffffffffffffffffffffffffffffffffffffffff167fa6b0d643c10c5fda6645b77a5fb2e02bc2cbd3597d2a30910ca9f42db8b948ca60405160405180910390a250565b620002168160026200025c6401000000000262002c81179091906401000000009004565b8073ffffffffffffffffffffffffffffffffffffffff167f3c8daa04ac74995dc3ea3d63c21f7f0b16b0fd6f123b305163af019adeadef4e60405160405180910390a250565b600073ffffffffffffffffffffffffffffffffffffffff168173ffffffffffffffffffffffffffffffffffffffff16141515156200029957600080fd5b620002b482826200031f640100000000026401000000009004565b151515620002c157600080fd5b60018260000160008373ffffffffffffffffffffffffffffffffffffffff1673ffffffffffffffffffffffffffffffffffffffff16815260200190815260200160002060006101000a81548160ff0219169083151502179055505050565b60008073ffffffffffffffffffffffffffffffffffffffff168273ffffffffffffffffffffffffffffffffffffffff16141515156200035d57600080fd5b8260000160008373ffffffffffffffffffffffffffffffffffffffff1673ffffffffffffffffffffffffffffffffffffffff16815260200190815260200160002060009054906101000a900460ff16905092915050565b612eb180620003c46000396000f3fe608060405260043610610154576000357c0100000000000000000000000000000000000000000000000000000000900463ffffffff1680630f2503aa14610159578063155a76461461019e5780631a781274146101ef578063261ca3281461023d5780632a2e391a1461027857806341c0e1b5146102c95780634d287f2b146102e057806361937f381461033157806363abe6d5146103ac5780636817b3fb146103e7578063690db8e3146105a65780636b2f65b0146107f55780636fecc3b31461085e578063715018a6146108bb57806387c54ad8146108d25780638da5cb5b1461093b5780638f32d59b146109925780639cd584b5146109c1578063a1d20472146109fc578063bc94330614610a13578063bedb054514610a4e578063d04e460d14610a65578063d60c1d5514610ef6578063e796892314610f5f578063f2fde38b14610f9a578063facb753014610feb575b600080fd5b34801561016557600080fd5b5061019c6004803603604081101561017c57600080fd5b810190808035906020019092919080359060200190929190505050611002565b005b3480156101aa57600080fd5b506101ed600480360360208110156101c157600080fd5b81019080803573ffffffffffffffffffffffffffffffffffffffff1690602001909291905050506111d2565b005b61023b6004803603604081101561020557600080fd5b8101908080359060200190929190803573ffffffffffffffffffffffffffffffffffffffff1690602001909291905050506111f2565b005b34801561024957600080fd5b506102766004803603602081101561026057600080fd5b81019080803590602001909291905050506114a4565b005b34801561028457600080fd5b506102c76004803603602081101561029b57600080fd5b81019080803573ffffffffffffffffffffffffffffffffffffffff169060200190929190505050611600565b005b3480156102d557600080fd5b506102de611620565b005b3480156102ec57600080fd5b5061032f6004803603602081101561030357600080fd5b81019080803573ffffffffffffffffffffffffffffffffffffffff16906020019092919050505061166e565b005b34801561033d57600080fd5b5061036a6004803603602081101561035457600080fd5b810190808035906020019092919050505061168e565b604051808273ffffffffffffffffffffffffffffffffffffffff1673ffffffffffffffffffffffffffffffffffffffff16815260200191505060405180910390f35b3480156103b857600080fd5b506103e5600480360360208110156103cf57600080fd5b81019080803590602001909291905050506116d3565b005b3480156103f357600080fd5b506104206004803603602081101561040a57600080fd5b8101908080359060200190929190505050611899565b604051808573ffffffffffffffffffffffffffffffffffffffff1673ffffffffffffffffffffffffffffffffffffffff168152602001806020018060200180602001848103845287818151815260200191508051906020019080838360005b8381101561049a57808201518184015260208101905061047f565b50505050905090810190601f1680156104c75780820380516001836020036101000a031916815260200191505b50848103835286818151815260200191508051906020019080838360005b838110156105005780820151818401526020810190506104e5565b50505050905090810190601f16801561052d5780820380516001836020036101000a031916815260200191505b50848103825285818151815260200191508051906020019080838360005b8381101561056657808201518184015260208101905061054b565b50505050905090810190601f1680156105935780820380516001836020036101000a031916815260200191505b5097505050505050505060405180910390f35b3480156105b257600080fd5b506105df600480360360208110156105c957600080fd5b8101908080359060200190929190505050611acc565b604051808b81526020018a73ffffffffffffffffffffffffffffffffffffffff1673ffffffffffffffffffffffffffffffffffffffff16815260200180602001898152602001806020018881526020018060200187600781111561063f57fe5b60ff1681526020018673ffffffffffffffffffffffffffffffffffffffff1673ffffffffffffffffffffffffffffffffffffffff1681526020018573ffffffffffffffffffffffffffffffffffffffff1673ffffffffffffffffffffffffffffffffffffffff16815260200184810384528c818151815260200191508051906020019080838360005b838110156106e35780820151818401526020810190506106c8565b50505050905090810190601f1680156107105780820380516001836020036101000a031916815260200191505b5084810383528a818151815260200191508051906020019080838360005b8381101561074957808201518184015260208101905061072e565b50505050905090810190601f1680156107765780820380516001836020036101000a031916815260200191505b50848103825288818151815260200191508051906020019080838360005b838110156107af578082015181840152602081019050610794565b50505050905090810190601f1680156107dc5780820380516001836020036101000a031916815260200191505b509d505050505050505050505050505060405180910390f35b34801561080157600080fd5b506108446004803603602081101561081857600080fd5b81019080803573ffffffffffffffffffffffffffffffffffffffff169060200190929190505050611d86565b604051808215151515815260200191505060405180910390f35b34801561086a57600080fd5b506108976004803603602081101561088157600080fd5b8101908080359060200190929190505050611da3565b604051808260078111156108a757fe5b60ff16815260200191505060405180910390f35b3480156108c757600080fd5b506108d0611dd5565b005b3480156108de57600080fd5b50610921600480360360208110156108f557600080fd5b81019080803573ffffffffffffffffffffffffffffffffffffffff169060200190929190505050611ea9565b604051808215151515815260200191505060405180910390f35b34801561094757600080fd5b50610950611ec6565b604051808273ffffffffffffffffffffffffffffffffffffffff1673ffffffffffffffffffffffffffffffffffffffff16815260200191505060405180910390f35b34801561099e57600080fd5b506109a7611ef0565b604051808215151515815260200191505060405180910390f35b3480156109cd57600080fd5b506109fa600480360360208110156109e457600080fd5b8101908080359060200190929190505050611f48565b005b348015610a0857600080fd5b50610a1161210e565b005b348015610a1f57600080fd5b50610a4c60048036036020811015610a3657600080fd5b8101908080359060200190929190505050612119565b005b348015610a5a57600080fd5b50610a63612346565b005b348015610a7157600080fd5b50610ee06004803603610120811015610a8957600080fd5b8101908080359060200190640100000000811115610aa657600080fd5b820183602082011115610ab857600080fd5b80359060200191846001830284011164010000000083111715610ada57600080fd5b91908080601f016020809104026020016040519081016040528093929190818152602001838380828437600081840152601f19601f8201169050808301925050505050505091929192908035906020019092919080359060200190640100000000811115610b4757600080fd5b820183602082011115610b5957600080fd5b80359060200191846001830284011164010000000083111715610b7b57600080fd5b91908080601f016020809104026020016040519081016040528093929190818152602001838380828437600081840152601f19601f82011690508083019250505050505050919291929080359060200190640100000000811115610bde57600080fd5b820183602082011115610bf057600080fd5b80359060200191846001830284011164010000000083111715610c1257600080fd5b91908080601f016020809104026020016040519081016040528093929190818152602001838380828437600081840152601f19601f820116905080830192505050505050509192919290803573ffffffffffffffffffffffffffffffffffffffff16906020019092919080359060200190640100000000811115610c9557600080fd5b820183602082011115610ca757600080fd5b80359060200191846001830284011164010000000083111715610cc957600080fd5b91908080601f016020809104026020016040519081016040528093929190818152602001838380828437600081840152601f19601f82011690508083019250505050505050919291929080359060200190640100000000811115610d2c57600080fd5b820183602082011115610d3e57600080fd5b80359060200191846001830284011164010000000083111715610d6057600080fd5b91908080601f016020809104026020016040519081016040528093929190818152602001838380828437600081840152601f19601f82011690508083019250505050505050919291929080359060200190640100000000811115610dc357600080fd5b820183602082011115610dd557600080fd5b80359060200191846001830284011164010000000083111715610df757600080fd5b91908080601f016020809104026020016040519081016040528093929190818152602001838380828437600081840152601f19601f82011690508083019250505050505050919291929080359060200190640100000000811115610e5a57600080fd5b820183602082011115610e6c57600080fd5b80359060200191846001830284011164010000000083111715610e8e57600080fd5b91908080601f016020809104026020016040519081016040528093929190818152602001838380828437600081840152601f19601f820116905080830192505050505050509192919290505050612351565b6040518082815260200191505060405180910390f35b348015610f0257600080fd5b50610f4560048036036020811015610f1957600080fd5b81019080803573ffffffffffffffffffffffffffffffffffffffff1690602001909291905050506126fd565b604051808215151515815260200191505060405180910390f35b348015610f6b57600080fd5b50610f9860048036036020811015610f8257600080fd5b810190808035906020019092919050505061271a565b005b348015610fa657600080fd5b50610fe960048036036020811015610fbd57600080fd5b81019080803573ffffffffffffffffffffffffffffffffffffffff1690602001909291905050506128ab565b005b348015610ff757600080fd5b506110006128ca565b005b61100b33611d86565b151561101657600080fd5b8160006005600083815260200190815260200160002060050160009054906101000a900473ffffffffffffffffffffffffffffffffffffffff1690508073ffffffffffffffffffffffffffffffffffffffff163373ffffffffffffffffffffffffffffffffffffffff1614151561108c57600080fd5b836001600781111561109a57fe5b60056000838152602001908152602001600020600c0160009054906101000a900460ff1660078111156110c957fe5b1415156110d557600080fd5b8460006005600083815260200190815260200160002060060160009054906101000a900473ffffffffffffffffffffffffffffffffffffffff1690508073ffffffffffffffffffffffffffffffffffffffff163373ffffffffffffffffffffffffffffffffffffffff1614151561114b57600080fd5b6000600560008981526020019081526020016000209050600281600c0160006101000a81548160ff0219169083600781111561118357fe5b02179055508681600b01819055507f4d6ab9e4613f1d574cb846fd1b7bf27837dd08bd1703ab68d4189920aff6fc80886040518082815260200191505060405180910390a15050505050505050565b6111db336126fd565b15156111e657600080fd5b6111ef816128d5565b50565b6111fb33611ea9565b151561120657600080fd5b816002600781111561121457fe5b60056000838152602001908152602001600020600c0160009054906101000a900460ff16600781111561124357fe5b14151561124f57600080fd5b818073ffffffffffffffffffffffffffffffffffffffff163373ffffffffffffffffffffffffffffffffffffffff1614151561128a57600080fd5b83600060056000838152602001908152602001600020600b015490508034101515156112b557600080fd5b8560006005600089815260200190815260200160002090508681600c0160016101000a81548173ffffffffffffffffffffffffffffffffffffffff021916908373ffffffffffffffffffffffffffffffffffffffff160217905550868160050160006101000a81548173ffffffffffffffffffffffffffffffffffffffff021916908373ffffffffffffffffffffffffffffffffffffffff160217905550600381600c0160006101000a81548160ff0219169083600781111561137457fe5b0217905550600081600b015490508160060160009054906101000a900473ffffffffffffffffffffffffffffffffffffffff1673ffffffffffffffffffffffffffffffffffffffff166108fc829081150290604051600060405180830381858888f193505050501580156113ec573d6000803e3d6000fd5b507f7e79c268384d04176e7756f1c88bdafaf9ff08cd00c7bbb6a27b894b1276e333896040518082815260200191505060405180910390a15050600060056000838152602001908152602001600020600b01549050600081340390506000811115611499573373ffffffffffffffffffffffffffffffffffffffff166108fc829081150290604051600060405180830381858888f19350505050158015611497573d6000803e3d6000fd5b505b505050505050505050565b6114ad336126fd565b15156114b857600080fd5b80600460078111156114c657fe5b60056000838152602001908152602001600020600c0160009054906101000a900460ff1660078111156114f557fe5b14151561150157600080fd5b6000600560008481526020019081526020016000209050338160050160006101000a81548173ffffffffffffffffffffffffffffffffffffffff021916908373ffffffffffffffffffffffffffffffffffffffff1602179055503381600d0160006101000a81548173ffffffffffffffffffffffffffffffffffffffff021916908373ffffffffffffffffffffffffffffffffffffffff160217905550600481600c0160006101000a81548160ff021916908360078111156115bf57fe5b02179055507f083ec4064b35087af011df34f3d207f4f7f619945bf47aac7151dc1bb26cbcec836040518082815260200191505060405180910390a1505050565b61160933611ea9565b151561161457600080fd5b61161d8161292f565b50565b611628611ef0565b151561163357600080fd5b600360009054906101000a900473ffffffffffffffffffffffffffffffffffffffff1673ffffffffffffffffffffffffffffffffffffffff16ff5b61167733611d86565b151561168257600080fd5b61168b81612989565b50565b6000806005600084815260200190815260200160002090508060050160009054906101000a900473ffffffffffffffffffffffffffffffffffffffff16915050919050565b6116dc33611d86565b15156116e757600080fd5b8060006005600083815260200190815260200160002060050160009054906101000a900473ffffffffffffffffffffffffffffffffffffffff1690508073ffffffffffffffffffffffffffffffffffffffff163373ffffffffffffffffffffffffffffffffffffffff1614151561175d57600080fd5b826000600781111561176b57fe5b60056000838152602001908152602001600020600c0160009054906101000a900460ff16600781111561179a57fe5b1415156117a657600080fd5b8360006005600083815260200190815260200160002060060160009054906101000a900473ffffffffffffffffffffffffffffffffffffffff1690508073ffffffffffffffffffffffffffffffffffffffff163373ffffffffffffffffffffffffffffffffffffffff1614151561181c57600080fd5b6000600560008881526020019081526020016000209050600181600c0160006101000a81548160ff0219169083600781111561185457fe5b02179055507f97f7a0783f172f1b747098280ac311feca87fe2f173068f66c02ff24f8ca3f40876040518082815260200191505060405180910390a150505050505050565b6000606080606060006005600087815260200190815260200160002090508060060160009054906101000a900473ffffffffffffffffffffffffffffffffffffffff16816007018260080183600901828054600181600116156101000203166002900480601f01602080910402602001604051908101604052809291908181526020018280546001816001161561010002031660029004801561197d5780601f106119525761010080835404028352916020019161197d565b820191906000526020600020905b81548152906001019060200180831161196057829003601f168201915b50505050509250818054600181600116156101000203166002900480601f016020809104026020016040519081016040528092919081815260200182805460018160011615610100020316600290048015611a195780601f106119ee57610100808354040283529160200191611a19565b820191906000526020600020905b8154815290600101906020018083116119fc57829003601f168201915b50505050509150808054600181600116156101000203166002900480601f016020809104026020016040519081016040528092919081815260200182805460018160011615610100020316600290048015611ab55780601f10611a8a57610100808354040283529160200191611ab5565b820191906000526020600020905b815481529060010190602001808311611a9857829003601f168201915b505050505090509450945094509450509193509193565b60008060606000606060006060600080600080600560008d8152602001908152602001600020905080600001548160050160009054906101000a900473ffffffffffffffffffffffffffffffffffffffff168260010183600201548460040185600b015486600a0187600c0160009054906101000a900460ff1688600c0160019054906101000a900473ffffffffffffffffffffffffffffffffffffffff1689600d0160009054906101000a900473ffffffffffffffffffffffffffffffffffffffff16878054600181600116156101000203166002900480601f016020809104026020016040519081016040528092919081815260200182805460018160011615610100020316600290048015611c255780601f10611bfa57610100808354040283529160200191611c25565b820191906000526020600020905b815481529060010190602001808311611c0857829003601f168201915b50505050509750858054600181600116156101000203166002900480601f016020809104026020016040519081016040528092919081815260200182805460018160011615610100020316600290048015611cc15780601f10611c9657610100808354040283529160200191611cc1565b820191906000526020600020905b815481529060010190602001808311611ca457829003601f168201915b50505050509550838054600181600116156101000203166002900480601f016020809104026020016040519081016040528092919081815260200182805460018160011615610100020316600290048015611d5d5780601f10611d3257610100808354040283529160200191611d5d565b820191906000526020600020905b815481529060010190602001808311611d4057829003601f168201915b505050505093509a509a509a509a509a509a509a509a509a509a50509193959799509193959799565b6000611d9c8260006129e390919063ffffffff16565b9050919050565b60008060056000848152602001908152602001600020905080600c0160009054906101000a900460ff16915050919050565b611ddd611ef0565b1515611de857600080fd5b600073ffffffffffffffffffffffffffffffffffffffff16600360009054906101000a900473ffffffffffffffffffffffffffffffffffffffff1673ffffffffffffffffffffffffffffffffffffffff167f5c486528ec3e3f0ea91181cff8116f02bfa350e03b8b6f12e00765adbb5af85c60405160405180910390a36000600360006101000a81548173ffffffffffffffffffffffffffffffffffffffff021916908373ffffffffffffffffffffffffffffffffffffffff160217905550565b6000611ebf8260026129e390919063ffffffff16565b9050919050565b6000600360009054906101000a900473ffffffffffffffffffffffffffffffffffffffff16905090565b6000600360009054906101000a900473ffffffffffffffffffffffffffffffffffffffff1673ffffffffffffffffffffffffffffffffffffffff163373ffffffffffffffffffffffffffffffffffffffff1614905090565b611f51336126fd565b1515611f5c57600080fd5b8060006005600083815260200190815260200160002060050160009054906101000a900473ffffffffffffffffffffffffffffffffffffffff1690508073ffffffffffffffffffffffffffffffffffffffff163373ffffffffffffffffffffffffffffffffffffffff16141515611fd257600080fd5b8260056007811115611fe057fe5b60056000838152602001908152602001600020600c0160009054906101000a900460ff16600781111561200f57fe5b14151561201b57600080fd5b83600060056000838152602001908152602001600020600d0160009054906101000a900473ffffffffffffffffffffffffffffffffffffffff1690508073ffffffffffffffffffffffffffffffffffffffff163373ffffffffffffffffffffffffffffffffffffffff1614151561209157600080fd5b6000600560008881526020019081526020016000209050600681600c0160006101000a81548160ff021916908360078111156120c957fe5b02179055507ff00b9a5725b80c54016f42114f6ed7792d22eecb116011c4afac29c57bef6c95876040518082815260200191505060405180910390a150505050505050565b61211733612a77565b565b612122336126fd565b151561212d57600080fd5b8060006005600083815260200190815260200160002060050160009054906101000a900473ffffffffffffffffffffffffffffffffffffffff1690508073ffffffffffffffffffffffffffffffffffffffff163373ffffffffffffffffffffffffffffffffffffffff161415156121a357600080fd5b82600660078111156121b157fe5b60056000838152602001908152602001600020600c0160009054906101000a900460ff1660078111156121e057fe5b1415156121ec57600080fd5b83600060056000838152602001908152602001600020600d0160009054906101000a900473ffffffffffffffffffffffffffffffffffffffff1690508073ffffffffffffffffffffffffffffffffffffffff163373ffffffffffffffffffffffffffffffffffffffff1614151561226257600080fd5b600060056000888152602001908152602001600020905080600c0160019054906101000a900473ffffffffffffffffffffffffffffffffffffffff168160050160006101000a81548173ffffffffffffffffffffffffffffffffffffffff021916908373ffffffffffffffffffffffffffffffffffffffff160217905550600781600c0160006101000a81548160ff0219169083600781111561230157fe5b02179055507ffcc296b8bdd64e3f1d1faadef50cb2d6550f645316330fe57cb1dd7e0612ead0876040518082815260200191505060405180910390a150505050505050565b61234f33612ad1565b565b6000858073ffffffffffffffffffffffffffffffffffffffff163373ffffffffffffffffffffffffffffffffffffffff1614151561238e57600080fd5b600460008154809291906001019190505591506101e0604051908101604052808381526020018c81526020018b81526020018a81526020018981526020018873ffffffffffffffffffffffffffffffffffffffff1681526020018873ffffffffffffffffffffffffffffffffffffffff168152602001878152602001868152602001858152602001848152602001600081526020016000600781111561243057fe5b8152602001600073ffffffffffffffffffffffffffffffffffffffff168152602001600073ffffffffffffffffffffffffffffffffffffffff16815250600560008481526020019081526020016000206000820151816000015560208201518160010190805190602001906124a6929190612de0565b506040820151816002015560608201518160030190805190602001906124cd929190612de0565b5060808201518160040190805190602001906124ea929190612de0565b5060a08201518160050160006101000a81548173ffffffffffffffffffffffffffffffffffffffff021916908373ffffffffffffffffffffffffffffffffffffffff16021790555060c08201518160060160006101000a81548173ffffffffffffffffffffffffffffffffffffffff021916908373ffffffffffffffffffffffffffffffffffffffff16021790555060e0820151816007019080519060200190612595929190612de0565b506101008201518160080190805190602001906125b3929190612de0565b506101208201518160090190805190602001906125d1929190612de0565b5061014082015181600a0190805190602001906125ef929190612de0565b5061016082015181600b015561018082015181600c0160006101000a81548160ff0219169083600781111561262057fe5b02179055506101a082015181600c0160016101000a81548173ffffffffffffffffffffffffffffffffffffffff021916908373ffffffffffffffffffffffffffffffffffffffff1602179055506101c082015181600d0160006101000a81548173ffffffffffffffffffffffffffffffffffffffff021916908373ffffffffffffffffffffffffffffffffffffffff1602179055509050507f06acbfb32bcf8383f3b0a768b70ac9ec234ea0f2d3b9c77fa6a2de69b919aad1826040518082815260200191505060405180910390a1509998505050505050505050565b60006127138260016129e390919063ffffffff16565b9050919050565b61272333611d86565b151561272e57600080fd5b806003600781111561273c57fe5b60056000838152602001908152602001600020600c0160009054906101000a900460ff16600781111561276b57fe5b14151561277757600080fd5b8160006005600083815260200190815260200160002060060160009054906101000a900473ffffffffffffffffffffffffffffffffffffffff1690508073ffffffffffffffffffffffffffffffffffffffff163373ffffffffffffffffffffffffffffffffffffffff161415156127ed57600080fd5b6000600560008681526020019081526020016000209050338160050160006101000a81548173ffffffffffffffffffffffffffffffffffffffff021916908373ffffffffffffffffffffffffffffffffffffffff160217905550600481600c0160006101000a81548160ff0219169083600781111561286857fe5b02179055507f9b3b66e2380b690bae22c73ef1428fb0c91e72fe14a4b6defa13035214187aff856040518082815260200191505060405180910390a15050505050565b6128b3611ef0565b15156128be57600080fd5b6128c781612b2b565b50565b6128d333612c27565b565b6128e9816001612c8190919063ffffffff16565b8073ffffffffffffffffffffffffffffffffffffffff167fa6b0d643c10c5fda6645b77a5fb2e02bc2cbd3597d2a30910ca9f42db8b948ca60405160405180910390a250565b612943816002612c8190919063ffffffff16565b8073ffffffffffffffffffffffffffffffffffffffff167f3c8daa04ac74995dc3ea3d63c21f7f0b16b0fd6f123b305163af019adeadef4e60405160405180910390a250565b61299d816000612c8190919063ffffffff16565b8073ffffffffffffffffffffffffffffffffffffffff167fcbfc96fa35f269722f7abab67c3e11fbfd63618e2e593bdf481f2818e8e8304260405160405180910390a250565b60008073ffffffffffffffffffffffffffffffffffffffff168273ffffffffffffffffffffffffffffffffffffffff1614151515612a2057600080fd5b8260000160008373ffffffffffffffffffffffffffffffffffffffff1673ffffffffffffffffffffffffffffffffffffffff16815260200190815260200160002060009054906101000a900460ff16905092915050565b612a8b816001612d3190919063ffffffff16565b8073ffffffffffffffffffffffffffffffffffffffff167f4098c33ee7259bdc6331fa574feb5904acfe84b01ace83ede4bc77e2d3ad673860405160405180910390a250565b612ae5816000612d3190919063ffffffff16565b8073ffffffffffffffffffffffffffffffffffffffff167f9d7bad3f21c51eaf001a18afc7f3666e2f9413dafcb58ea9413eeea76b6a2cd360405160405180910390a250565b600073ffffffffffffffffffffffffffffffffffffffff168173ffffffffffffffffffffffffffffffffffffffff1614151515612b6757600080fd5b8073ffffffffffffffffffffffffffffffffffffffff16600360009054906101000a900473ffffffffffffffffffffffffffffffffffffffff1673ffffffffffffffffffffffffffffffffffffffff167f5c486528ec3e3f0ea91181cff8116f02bfa350e03b8b6f12e00765adbb5af85c60405160405180910390a380600360006101000a81548173ffffffffffffffffffffffffffffffffffffffff021916908373ffffffffffffffffffffffffffffffffffffffff16021790555050565b612c3b816002612d3190919063ffffffff16565b8073ffffffffffffffffffffffffffffffffffffffff167f146551d3c460f46baf7322958cdc5e81ef555361698a32fe4af7a87522c318d660405160405180910390a250565b600073ffffffffffffffffffffffffffffffffffffffff168173ffffffffffffffffffffffffffffffffffffffff1614151515612cbd57600080fd5b612cc782826129e3565b151515612cd357600080fd5b60018260000160008373ffffffffffffffffffffffffffffffffffffffff1673ffffffffffffffffffffffffffffffffffffffff16815260200190815260200160002060006101000a81548160ff0219169083151502179055505050565b600073ffffffffffffffffffffffffffffffffffffffff168173ffffffffffffffffffffffffffffffffffffffff1614151515612d6d57600080fd5b612d7782826129e3565b1515612d8257600080fd5b60008260000160008373ffffffffffffffffffffffffffffffffffffffff1673ffffffffffffffffffffffffffffffffffffffff16815260200190815260200160002060006101000a81548160ff0219169083151502179055505050565b828054600181600116156101000203166002900490600052602060002090601f016020900481019282601f10612e2157805160ff1916838001178555612e4f565b82800160010185558215612e4f579182015b82811115612e4e578251825591602001919060010190612e33565b5b509050612e5c9190612e60565b5090565b612e8291905b80821115612e7e576000816000905550600101612e66565b5090565b9056fea165627a7a723058207c628f08d3c21e9bcb1793f6931da358bc235a5e72acce0836410bafe0a379ee0029",
  "source": "pragma solidity ^0.5.0;\n\n// Import the roles and ownable contracts\nimport \"../artworkaccesscontrol/ArtistRole.sol\";\nimport \"../artworkaccesscontrol/ArtAdopterRole.sol\";\nimport \"../artworkaccesscontrol/ShipperRole.sol\";\nimport \"../artworkcore/Ownable.sol\";\n\n// Define a contract 'ArtSupplychain'\ncontract ArtSupplyChain is ArtistRole, ShipperRole, ArtAdopterRole, Ownable {\n\n    // Define a variable for the next available ID for an Artwork\n    uint  seq;\n\n    // Define a public mapping 'artworks' that maps the artwork ID to an Artwork.\n    mapping (uint => Artwork) artworks;\n\n    // Define a public mapping 'artworksHistory' that maps the unique artwork ID to an array of TxHash, \n    // that track its journey through the supply chain -- to be sent from DApp.\n    mapping (uint => string[]) artworksHistory;\n  \n    // Define enum 'State' with the following values:\n    enum State \n    { \n        Created,    // 0\n        Framed,     // 1\n        Adoptable,  // 2\n        Adopted,    // 3\n        Packed,     // 4\n        PickedUp,   // 5\n        Shipped,    // 6\n        Delivered   // 7\n    }\n\n    State constant defaultState = State.Created;\n\n    // Define a struct 'Artwork' with the following fields:\n    struct Artwork {\n        uint    artworkID; // Unique artwork ID, goes on the package, can be verified by the Adopter\n        string  artworkTitle; // Title of the artwork\n        uint    artworkYear; // Year the artwork was created\n        string  artworkMedium; // The support and materials used to create the artwork\n        string  artworkStyle; // The style of the artwork (e.g. abstract expressionism)\n        address artworkOwnerID;  // Metamask-Ethereum address of the current owner as the product moves through 8 stages (or states)\n        address payable originArtistID; // Metamask-Ethereum address of the Artist\n        string  originArtistName; // Artist Name\n        string  originArtistInfo;  // Artist Information\n        string  originArtistLocation; // Location of Artist\n        string  artistNotes; // Artist's Artwork Notes\n        uint    artworkPrice; // Artwork Price\n        State   artworkState;  // Artwork State as represented in the enum above\n        address payable artAdopterID; // Metamask-Ethereum address of the Art Adopter\n        address shipperID;  // Metamask-Ethereum address of the Shipper\n    }\n\n    // Define the artwork events to be emitted during the 7 stages of the supply chain\n    event Created(uint artworkID);\n    event Framed(uint artworkID);\n    event Adoptable(uint artworkID);\n    event Adopted(uint artworkID);\n    event Packed(uint artworkID);\n    event PickedUp(uint artworkID);\n    event Shipped(uint artworkID);\n    event Delivered(uint artworkID);\n\n    // Define a modifier that checks the owner of the artwork\n    modifier onlyArtworkOwner (uint _artworkID) {\n        address _artworkOwner = artworks[_artworkID].artworkOwnerID;\n        require(msg.sender == _artworkOwner);\n        _;\n    }\n\n    // Define a modifer that verifies the Caller\n    modifier verifyCaller (address _address) {\n        require(msg.sender == _address); \n        _;\n    }\n\n    // Define a modifer that verifies the caller has the Artist role and\n    // that the msg.sender is the original creator of the artwork\n    modifier verifyArtist (uint _artworkID) {\n        address _originArtistID = artworks[_artworkID].originArtistID;\n        require(msg.sender == _originArtistID); \n        _;\n    }\n\n    // Define a modifer that verifies the caller has the Shipper role and \n    // that the msg.sender is the assigned Shipper for the artwork.\n    modifier verifyShipper (uint _artworkID) {\n        address _shipperID = artworks[_artworkID].shipperID;\n        require(msg.sender == _shipperID); \n        _;\n    }\n\n    // Define a modifer that verifies the caller has the ArtAdopter role and \n    // that the msg.sender is the actual adopter of the artwork.\n    modifier verifyAdopter (uint _artworkID) {\n        address _adopterID = artworks[_artworkID].artAdopterID;\n        require(msg.sender == _adopterID); \n        _;\n    }\n\n    // Define a modifier that checks if the paid amount is sufficient to cover the price\n    modifier sufficientFunds(uint _artworkID) { \n        uint _price = artworks[_artworkID].artworkPrice;\n        require(msg.value >= _price); \n        _;\n    }\n  \n    // Define a modifier that checks the price and refunds the remaining balance\n    modifier handleExcess(uint _artworkID) {\n        _;\n        uint _price = artworks[_artworkID].artworkPrice;\n        uint amountToReturn = msg.value - _price;\n\n        if (amountToReturn > 0) {\n            msg.sender.transfer(amountToReturn);\n        }\n    }\n\n    // Define a modifier that checks if a state of an artwork is Created\n    modifier created(uint _artworkID) {\n        require(artworks[_artworkID].artworkState == State.Created);\n        _;\n    }\n\n    // Define a modifier that checks if a state of an artwork is Framed\n    modifier framed(uint _artworkID) {\n        require(artworks[_artworkID].artworkState == State.Framed);\n        _;\n    }\n  \n    // Define a modifier that checks if a state of an artwork is Adoptable\n    modifier adoptable(uint _artworkID) {\n        require(artworks[_artworkID].artworkState == State.Adoptable);\n        _;\n    }\n\n    // Define a modifier that checks if a state of an artwork is Adopted\n    modifier adopted(uint _artworkID) {\n        require(artworks[_artworkID].artworkState == State.Adopted);\n        _;\n    }\n  \n    // Define a modifier that checks if a state of an artwork is Packed\n    modifier packed(uint _artworkID) {\n        require(artworks[_artworkID].artworkState == State.Packed);\n        _;\n    }\n\n    // Define a modifier that checks if a state of an artwork is Picked Up by the shipper\n    modifier pickedUp(uint _artworkID) {\n        require(artworks[_artworkID].artworkState == State.PickedUp);\n        _;\n    }\n\n    // Define a modifier that checks if a state of an artwork is Shipped\n    modifier shipped(uint _artworkID) {\n        require(artworks[_artworkID].artworkState == State.Shipped);\n        _;\n    }\n\n    // Define a modifier that checks if a state of an artwork is Delivered\n    modifier delivered(uint _artworkID) {\n        require(artworks[_artworkID].artworkState == State.Delivered);\n        _;\n    }\n\n    // In the Ownable constructor the 'owner' is set to the address that instantiated the contract\n    // and set 'artworkID' to 1\n    constructor() public payable {\n        seq = 1;\n    }\n\n    // Define a function 'createArtwork' that allows an artist to mark an artwork 'Created'\n    // Only the artist can create the artwork, and must be the same as the creator of the art\n    function createArtwork\n    (\n        string memory _artworkTitle,\n        uint _artworkYear,\n        string memory _artworkMedium,\n        string memory _artworkStyle,\n        address payable _originArtistID, \n        string memory _originArtistName, \n        string memory _originArtistInfo, \n        string memory _originArtistLocation,  \n        string memory _artistNotes\n    ) \n        public\n        //onlyArtist\n        verifyCaller(_originArtistID)\n    returns\n    (\n        uint _artworkID\n    )\n    {\n        _artworkID = seq++;\n\n        artworks[_artworkID] = Artwork\n        (\n            _artworkID,\n            _artworkTitle,\n            _artworkYear,\n            _artworkMedium,\n            _artworkStyle,\n            _originArtistID,\n            _originArtistID,\n            _originArtistName,\n            _originArtistInfo,\n            _originArtistLocation,\n            _artistNotes,\n            0,\n            State.Created,\n            address(0),\n            address(0)\n        );\n\n        // Emit the appropriate event\n        emit Created(_artworkID);\n    }\n\n    // Define a function 'frameArtwork' that allows an artist to mark an artwork 'Framed'\n    function frameArtwork(uint _artworkID) public\n        onlyArtist\n        onlyArtworkOwner(_artworkID)\n        created(_artworkID)\n        verifyArtist(_artworkID)\n    {\n        Artwork storage a = artworks[_artworkID];\n\n        a.artworkState = State.Framed;\n\n        emit Framed(_artworkID);\n    }\n\n    // Define a function 'adoptableArtwork' that allows an artist to mark an artwork as 'ForAdoption'\n    function adoptableArtwork(uint _artworkID, uint _price) public \n        onlyArtist\n        onlyArtworkOwner(_artworkID)\n        framed(_artworkID)\n        verifyArtist(_artworkID)\n    {\n        Artwork storage a = artworks[_artworkID];\n\n        a.artworkState = State.Adoptable;\n        a.artworkPrice = _price;\n\n        emit Adoptable(_artworkID);\n    }\n\n    // Define a function 'adoptArtwork' that allows the adopter to mark an item 'Adopted'\n    // Use the above defined modifiers to check if the item is available for sale, if the buyer has paid enough, \n    // and any excess ether sent is refunded back to the buyer\n    function adoptArtwork(uint _artworkID, address payable _adopterID) public payable \n        onlyArtAdopter\n        adoptable(_artworkID)\n        verifyCaller(_adopterID)\n        sufficientFunds(_artworkID)\n        handleExcess(_artworkID)\n    {\n        Artwork storage a = artworks[_artworkID];\n\n        a.artAdopterID = _adopterID;\n        a.artworkOwnerID = _adopterID;\n        a.artworkState = State.Adopted;\n\n        uint _price = a.artworkPrice;\n    \n        // Transfer money to artist emit 'Adopted' event\n        a.originArtistID.transfer(_price);\n\n        emit Adopted(_artworkID);\n    }\n\n    // Define a function 'packArtwork' that allows an artist to mark an artwork 'Packed'\n    function packArtwork(uint _artworkID) public \n        onlyArtist\n        adopted(_artworkID)\n        verifyArtist(_artworkID)\n    {\n        Artwork storage a = artworks[_artworkID];\n\n        // Maker artist the artwork owner again, while it's being packed\n        a.artworkOwnerID = msg.sender;\n        a.artworkState = State.Packed;\n\n        emit Packed(_artworkID);\n    }\n\n    // Define a function 'pickUpArtwork' that allows a shipper to mark an artwork 'PickedUp'\n    function pickUpArtwork(uint _artworkID) public \n        onlyShipper\n        packed(_artworkID)\n    {\n        Artwork storage a = artworks[_artworkID];\n\n        // Update the artwork owner and assign shipper ID\n        // Ownership is tracked at each stage of the process\n        a.artworkOwnerID = msg.sender;\n        a.shipperID = msg.sender;\n\n        // Update state and emit 'PickedUp'\n        a.artworkState = State.Packed;\n\n        emit PickedUp(_artworkID);\n    }\n\n    // Define a function 'shipArtwork' that allows the shipper to mark an artwork 'Shipped'\n    function shipArtwork(uint _artworkID) public\n        onlyShipper\n        onlyArtworkOwner(_artworkID)\n        pickedUp(_artworkID)\n        verifyShipper(_artworkID)\n    {\n        Artwork storage a = artworks[_artworkID];\n\n        // Update with state and emit Shipped\n        a.artworkState = State.Shipped;\n    \n        emit Shipped(_artworkID);\n    }\n\n    // Define a function 'deliverArtwork' that allows the shipper to mark an artwork 'Delivered'\n    // Use the above modifiers to check if the item is shipped\n    function deliverArtwork(uint _artworkID) public\n        onlyShipper\n        onlyArtworkOwner(_artworkID)\n        shipped(_artworkID)\n        verifyShipper(_artworkID)\n    {\n        Artwork storage a = artworks[_artworkID];\n\n        // Update owner to art adopter and emit event\n        a.artworkOwnerID = a.artAdopterID;\n        a.artworkState = State.Delivered;\n    \n        emit Delivered(_artworkID);\n    }\n\n    // Define a function 'fetchArtworkOwner' that gets the current owner of the artwork\n    function fetchArtworkOwner(uint _artworkID) public view returns (address artworkOwnerID)\n    {\n        Artwork storage a = artworks[_artworkID];\n\n        return (a.artworkOwnerID);\n    }\n\n    // Define a function 'fetchArtworkState' that gets the current state of the artwork\n    function fetchArtworkState(uint _artworkID) public view returns (State artworkState)\n    {\n        Artwork storage a = artworks[_artworkID];\n\n        return (a.artworkState);\n    }\n\n    // Define a functon 'fetchArtistDetails' that gets the artist information\n    function fetchArtistDetails(uint _artworkID) public view returns\n    (\n        address payable originArtistID,\n        string memory originArtistName,\n        string memory originArtistInfo,\n        string memory originArtistLocation\n    )\n    {\n        Artwork storage a = artworks[_artworkID];\n\n        return\n        (\n            a.originArtistID,\n            a.originArtistName,\n            a.originArtistInfo,\n            a.originArtistLocation\n        );\n    }\n\n\n    // Define a function 'fetchArtworkDetails' that fetches the artwork data\n    function fetchArtworkDetails(uint _artworkID) public view returns \n    (\n        uint artworkID,\n        address artworkOwnerID,\n        string memory artworkTitle,\n        uint artworkYear,\n        string memory artworkStyle,\n        uint artworkPrice,\n        string memory artistNotes,\n        State artworkState,\n        address payable artAdopterID,\n        address shipperID\n    ) \n    {\n        // Assign values to parameters\n        Artwork storage a = artworks[_artworkID];\n    \n        return \n        (\n            a.artworkID,\n            a.artworkOwnerID,\n            a.artworkTitle,\n            a.artworkYear,\n            a.artworkStyle,           \n            a.artworkPrice,\n            a.artistNotes,\n            a.artworkState,\n            a.artAdopterID,\n            a.shipperID\n        );\n    }\n}\n",
  "sourcePath": "/Users/lauraweindorf/Udacity/art-shop/dapp/contracts/artworkbase/ArtSupplyChain.sol",
  "compiler": {
    "name": "solc",
    "version": "0.5.0+commit.1d4f565a.Emscripten.clang"
  },
  "schemaVersion": "3.0.2",
  "updatedAt": "2019-03-07T23:32:49.446Z",
  "devdoc": {
    "methods": {}
  },
  "userdoc": {
    "methods": {
      "isOwner()": {
        "notice": "Check if the calling address is the owner of the contract"
      },
      "owner()": {
        "notice": "Look up the address of the owner"
      },
      "renounceOwnership()": {
        "notice": "Define a function to renounce ownerhip"
      },
      "transferOwnership(address)": {
        "notice": "Define a public function to transfer ownership"
      }
    }
  }
}